{
  "_format": "hh-sol-artifact-1",
  "contractName": "Raffle",
  "sourceName": "contracts/Raffle.sol",
  "abi": [
    {
      "inputs": [
        {
          "internalType": "address",
          "name": "vrfCoordinatorV2",
          "type": "address"
        },
        {
          "internalType": "uint256",
          "name": "entranceFee",
          "type": "uint256"
        },
        {
          "internalType": "bytes32",
          "name": "gasLane",
          "type": "bytes32"
        },
        {
          "internalType": "uint64",
          "name": "subscriptionId",
          "type": "uint64"
        },
        {
          "internalType": "uint32",
          "name": "callbackGasLimit",
          "type": "uint32"
        },
        {
          "internalType": "uint256",
          "name": "interval",
          "type": "uint256"
        }
      ],
      "stateMutability": "nonpayable",
      "type": "constructor"
    },
    {
      "inputs": [
        {
          "internalType": "address",
          "name": "have",
          "type": "address"
        },
        {
          "internalType": "address",
          "name": "want",
          "type": "address"
        }
      ],
      "name": "OnlyCoordinatorCanFulfill",
      "type": "error"
    },
    {
      "inputs": [],
      "name": "Raffle__NotEnoughEthEntered",
      "type": "error"
    },
    {
      "inputs": [],
      "name": "Raffle__NotOpen",
      "type": "error"
    },
    {
      "inputs": [],
      "name": "Raffle__TransferFailed",
      "type": "error"
    },
    {
      "inputs": [
        {
          "internalType": "uint256",
          "name": "currentBalance",
          "type": "uint256"
        },
        {
          "internalType": "uint256",
          "name": "numPlayers",
          "type": "uint256"
        },
        {
          "internalType": "uint256",
          "name": "raffleState",
          "type": "uint256"
        }
      ],
      "name": "Raffle__UpkeepNotNeeded",
      "type": "error"
    },
    {
      "anonymous": false,
      "inputs": [
        {
          "indexed": true,
          "internalType": "address",
          "name": "player",
          "type": "address"
        }
      ],
      "name": "RaffleEnter",
      "type": "event"
    },
    {
      "anonymous": false,
      "inputs": [
        {
          "indexed": true,
          "internalType": "uint256",
          "name": "requestId",
          "type": "uint256"
        }
      ],
      "name": "RequstedRaffleWinner",
      "type": "event"
    },
    {
      "anonymous": false,
      "inputs": [
        {
          "indexed": false,
          "internalType": "address",
          "name": "winner",
          "type": "address"
        }
      ],
      "name": "WinnerPicked",
      "type": "event"
    },
    {
      "inputs": [
        {
          "internalType": "bytes",
          "name": "",
          "type": "bytes"
        }
      ],
      "name": "checkUpkeep",
      "outputs": [
        {
          "internalType": "bool",
          "name": "upkeepNeeded",
          "type": "bool"
        },
        {
          "internalType": "bytes",
          "name": "",
          "type": "bytes"
        }
      ],
      "stateMutability": "nonpayable",
      "type": "function"
    },
    {
      "inputs": [],
      "name": "enterRaffle",
      "outputs": [],
      "stateMutability": "payable",
      "type": "function"
    },
    {
      "inputs": [],
      "name": "getEntranceFee",
      "outputs": [
        {
          "internalType": "uint256",
          "name": "",
          "type": "uint256"
        }
      ],
      "stateMutability": "view",
      "type": "function"
    },
    {
      "inputs": [],
      "name": "getLatestTimestamp",
      "outputs": [
        {
          "internalType": "uint256",
          "name": "",
          "type": "uint256"
        }
      ],
      "stateMutability": "view",
      "type": "function"
    },
    {
      "inputs": [],
      "name": "getNumWords",
      "outputs": [
        {
          "internalType": "uint256",
          "name": "",
          "type": "uint256"
        }
      ],
      "stateMutability": "pure",
      "type": "function"
    },
    {
      "inputs": [],
      "name": "getNumberOfPlayers",
      "outputs": [
        {
          "internalType": "uint256",
          "name": "",
          "type": "uint256"
        }
      ],
      "stateMutability": "view",
      "type": "function"
    },
    {
      "inputs": [
        {
          "internalType": "uint256",
          "name": "index",
          "type": "uint256"
        }
      ],
      "name": "getPlayer",
      "outputs": [
        {
          "internalType": "address",
          "name": "",
          "type": "address"
        }
      ],
      "stateMutability": "view",
      "type": "function"
    },
    {
      "inputs": [],
      "name": "getRaffleState",
      "outputs": [
        {
          "internalType": "enum Raffle.RaffleState",
          "name": "",
          "type": "uint8"
        }
      ],
      "stateMutability": "view",
      "type": "function"
    },
    {
      "inputs": [],
      "name": "getRecentWinner",
      "outputs": [
        {
          "internalType": "address",
          "name": "",
          "type": "address"
        }
      ],
      "stateMutability": "view",
      "type": "function"
    },
    {
      "inputs": [],
      "name": "getRequestConfirmations",
      "outputs": [
        {
          "internalType": "uint256",
          "name": "",
          "type": "uint256"
        }
      ],
      "stateMutability": "pure",
      "type": "function"
    },
    {
      "inputs": [
        {
          "internalType": "bytes",
          "name": "",
          "type": "bytes"
        }
      ],
      "name": "performUpkeep",
      "outputs": [],
      "stateMutability": "nonpayable",
      "type": "function"
    },
    {
      "inputs": [
        {
          "internalType": "uint256",
          "name": "requestId",
          "type": "uint256"
        },
        {
          "internalType": "uint256[]",
          "name": "randomWords",
          "type": "uint256[]"
        }
      ],
      "name": "rawFulfillRandomWords",
      "outputs": [],
      "stateMutability": "nonpayable",
      "type": "function"
    }
  ],
  "bytecode": "0x6101606040523480156200001257600080fd5b506040516200181538038062001815833981810160405281019062000038919062000294565b858073ffffffffffffffffffffffffffffffffffffffff1660808173ffffffffffffffffffffffffffffffffffffffff1681525050508460a081815250508573ffffffffffffffffffffffffffffffffffffffff1660c08173ffffffffffffffffffffffffffffffffffffffff16815250508360e081815250508267ffffffffffffffff166101008167ffffffffffffffff16815250508163ffffffff166101208163ffffffff16815250506000600260146101000a81548160ff021916908360018111156200010d576200010c62000330565b5b0217905550426001819055508061014081815250505050505050506200035f565b600080fd5b600073ffffffffffffffffffffffffffffffffffffffff82169050919050565b6000620001608262000133565b9050919050565b620001728162000153565b81146200017e57600080fd5b50565b600081519050620001928162000167565b92915050565b6000819050919050565b620001ad8162000198565b8114620001b957600080fd5b50565b600081519050620001cd81620001a2565b92915050565b6000819050919050565b620001e881620001d3565b8114620001f457600080fd5b50565b6000815190506200020881620001dd565b92915050565b600067ffffffffffffffff82169050919050565b6200022d816200020e565b81146200023957600080fd5b50565b6000815190506200024d8162000222565b92915050565b600063ffffffff82169050919050565b6200026e8162000253565b81146200027a57600080fd5b50565b6000815190506200028e8162000263565b92915050565b60008060008060008060c08789031215620002b457620002b36200012e565b5b6000620002c489828a0162000181565b9650506020620002d789828a01620001bc565b9550506040620002ea89828a01620001f7565b9450506060620002fd89828a016200023c565b93505060806200031089828a016200027d565b92505060a06200032389828a01620001bc565b9150509295509295509295565b7f4e487b7100000000000000000000000000000000000000000000000000000000600052602160045260246000fd5b60805160a05160c05160e05161010051610120516101405161144d620003c860003960006107a7015260006106560152600061063301526000610612015260006105d60152600081816102b401526103b10152600081816102f10152610345015261144d6000f3fe6080604052600436106100a75760003560e01c806353a2c19a1161006457806353a2c19a146101895780635f1b0fd8146101b45780636e04ff0d146101df578063e55ae4e81461021d578063f43b52cb1461025a578063fd6673f514610285576100a7565b806309bc33a7146100ac578063115cbaf5146100d75780631fe543e3146101025780632cfcc5391461012b5780634585e33b14610135578063473f1ddc1461015e575b600080fd5b3480156100b857600080fd5b506100c16102b0565b6040516100ce9190610b54565b60405180910390f35b3480156100e357600080fd5b506100ec6102d8565b6040516100f99190610be6565b60405180910390f35b34801561010e57600080fd5b5061012960048036038101906101249190610d9a565b6102ef565b005b6101336103af565b005b34801561014157600080fd5b5061015c60048036038101906101579190610e51565b61051e565b005b34801561016a57600080fd5b5061017361071e565b6040516101809190610edf565b60405180910390f35b34801561019557600080fd5b5061019e610748565b6040516101ab9190610b54565b60405180910390f35b3480156101c057600080fd5b506101c9610757565b6040516101d69190610b54565b60405180910390f35b3480156101eb57600080fd5b5061020660048036038101906102019190610faf565b610764565b60405161021492919061109b565b60405180910390f35b34801561022957600080fd5b50610244600480360381019061023f91906110cb565b610811565b6040516102519190610edf565b60405180910390f35b34801561026657600080fd5b5061026f610858565b60405161027c9190610b54565b60405180910390f35b34801561029157600080fd5b5061029a610862565b6040516102a79190610b54565b60405180910390f35b60007f0000000000000000000000000000000000000000000000000000000000000000905090565b6000600260149054906101000a900460ff16905090565b7f000000000000000000000000000000000000000000000000000000000000000073ffffffffffffffffffffffffffffffffffffffff163373ffffffffffffffffffffffffffffffffffffffff16146103a157337f00000000000000000000000000000000000000000000000000000000000000006040517f1cf993f40000000000000000000000000000000000000000000000000000000081526004016103989291906110f8565b60405180910390fd5b6103ab828261086e565b5050565b7f0000000000000000000000000000000000000000000000000000000000000000341015610409576040517f066d781f00000000000000000000000000000000000000000000000000000000815260040160405180910390fd5b6000600181111561041d5761041c610b6f565b5b600260149054906101000a900460ff16600181111561043f5761043e610b6f565b5b14610476576040517f1425571c00000000000000000000000000000000000000000000000000000000815260040160405180910390fd5b6000339080600181540180825580915050600190039060005260206000200160009091909190916101000a81548173ffffffffffffffffffffffffffffffffffffffff021916908373ffffffffffffffffffffffffffffffffffffffff1602179055503373ffffffffffffffffffffffffffffffffffffffff167f0805e1d667bddb8a95f0f09880cf94f403fb596ce79928d9f29b74203ba284d460405160405180910390a2565b600061053860405180602001604052806000815250610764565b509050806105a75747600080549050600260149054906101000a900460ff16600181111561056957610568610b6f565b5b6040517f584327aa00000000000000000000000000000000000000000000000000000000815260040161059e93929190611121565b60405180910390fd5b6001600260146101000a81548160ff021916908360018111156105cd576105cc610b6f565b5b021790555060007f000000000000000000000000000000000000000000000000000000000000000073ffffffffffffffffffffffffffffffffffffffff16635d3b1d307f00000000000000000000000000000000000000000000000000000000000000007f000000000000000000000000000000000000000000000000000000000000000060037f000000000000000000000000000000000000000000000000000000000000000060016040518663ffffffff1660e01b81526004016106979594939291906111d0565b602060405180830381600087803b1580156106b157600080fd5b505af11580156106c5573d6000803e3d6000fd5b505050506040513d601f19601f820116820180604052508101906106e99190611238565b9050807f5787897ac6e37574567ab6b1f13760cf73602b333c66ba9ecf1077d9240a2c0160405160405180910390a250505050565b6000600260009054906101000a900473ffffffffffffffffffffffffffffffffffffffff16905090565b6000600163ffffffff16905090565b6000600361ffff16905090565b600060606000600260149054906101000a900460ff16600181111561078c5761078b610b6f565b5b600060018111156107a05761079f610b6f565b5b14905060007f0000000000000000000000000000000000000000000000000000000000000000600154426107d49190611294565b119050600080600080549050119050600080471190508380156107f45750825b80156107fd5750805b80156108065750815b955050505050915091565b6000808281548110610826576108256112c8565b5b9060005260206000200160009054906101000a900473ffffffffffffffffffffffffffffffffffffffff169050919050565b6000600154905090565b60008080549050905090565b6000808054905082600081518110610889576108886112c8565b5b602002602001015161089b9190611326565b905060008082815481106108b2576108b16112c8565b5b9060005260206000200160009054906101000a900473ffffffffffffffffffffffffffffffffffffffff16905080600260006101000a81548173ffffffffffffffffffffffffffffffffffffffff021916908373ffffffffffffffffffffffffffffffffffffffff1602179055506000600260146101000a81548160ff0219169083600181111561094657610945610b6f565b5b0217905550600067ffffffffffffffff81111561096657610965610c57565b5b6040519080825280602002602001820160405280156109945781602001602082028036833780820191505090505b50600090805190602001906109aa929190610a94565b50600060018190555060008173ffffffffffffffffffffffffffffffffffffffff16476040516109d990611388565b60006040518083038185875af1925050503d8060008114610a16576040519150601f19603f3d011682016040523d82523d6000602084013e610a1b565b606091505b5050905080610a56576040517fa1d04b3900000000000000000000000000000000000000000000000000000000815260040160405180910390fd5b7f5b690ec4a06fe979403046eaeea5b3ce38524683c3001f662c8b5a829632f7df82604051610a8591906113fc565b60405180910390a15050505050565b828054828255906000526020600020908101928215610b0d579160200282015b82811115610b0c5782518260006101000a81548173ffffffffffffffffffffffffffffffffffffffff021916908373ffffffffffffffffffffffffffffffffffffffff16021790555091602001919060010190610ab4565b5b509050610b1a9190610b1e565b5090565b5b80821115610b37576000816000905550600101610b1f565b5090565b6000819050919050565b610b4e81610b3b565b82525050565b6000602082019050610b696000830184610b45565b92915050565b7f4e487b7100000000000000000000000000000000000000000000000000000000600052602160045260246000fd5b60028110610baf57610bae610b6f565b5b50565b6000819050610bc082610b9e565b919050565b6000610bd082610bb2565b9050919050565b610be081610bc5565b82525050565b6000602082019050610bfb6000830184610bd7565b92915050565b6000604051905090565b600080fd5b600080fd5b610c1e81610b3b565b8114610c2957600080fd5b50565b600081359050610c3b81610c15565b92915050565b600080fd5b6000601f19601f8301169050919050565b7f4e487b7100000000000000000000000000000000000000000000000000000000600052604160045260246000fd5b610c8f82610c46565b810181811067ffffffffffffffff82111715610cae57610cad610c57565b5b80604052505050565b6000610cc1610c01565b9050610ccd8282610c86565b919050565b600067ffffffffffffffff821115610ced57610cec610c57565b5b602082029050602081019050919050565b600080fd5b6000610d16610d1184610cd2565b610cb7565b90508083825260208201905060208402830185811115610d3957610d38610cfe565b5b835b81811015610d625780610d4e8882610c2c565b845260208401935050602081019050610d3b565b5050509392505050565b600082601f830112610d8157610d80610c41565b5b8135610d91848260208601610d03565b91505092915050565b60008060408385031215610db157610db0610c0b565b5b6000610dbf85828601610c2c565b925050602083013567ffffffffffffffff811115610de057610ddf610c10565b5b610dec85828601610d6c565b9150509250929050565b600080fd5b60008083601f840112610e1157610e10610c41565b5b8235905067ffffffffffffffff811115610e2e57610e2d610df6565b5b602083019150836001820283011115610e4a57610e49610cfe565b5b9250929050565b60008060208385031215610e6857610e67610c0b565b5b600083013567ffffffffffffffff811115610e8657610e85610c10565b5b610e9285828601610dfb565b92509250509250929050565b600073ffffffffffffffffffffffffffffffffffffffff82169050919050565b6000610ec982610e9e565b9050919050565b610ed981610ebe565b82525050565b6000602082019050610ef46000830184610ed0565b92915050565b600080fd5b600067ffffffffffffffff821115610f1a57610f19610c57565b5b610f2382610c46565b9050602081019050919050565b82818337600083830152505050565b6000610f52610f4d84610eff565b610cb7565b905082815260208101848484011115610f6e57610f6d610efa565b5b610f79848285610f30565b509392505050565b600082601f830112610f9657610f95610c41565b5b8135610fa6848260208601610f3f565b91505092915050565b600060208284031215610fc557610fc4610c0b565b5b600082013567ffffffffffffffff811115610fe357610fe2610c10565b5b610fef84828501610f81565b91505092915050565b60008115159050919050565b61100d81610ff8565b82525050565b600081519050919050565b600082825260208201905092915050565b60005b8381101561104d578082015181840152602081019050611032565b8381111561105c576000848401525b50505050565b600061106d82611013565b611077818561101e565b935061108781856020860161102f565b61109081610c46565b840191505092915050565b60006040820190506110b06000830185611004565b81810360208301526110c28184611062565b90509392505050565b6000602082840312156110e1576110e0610c0b565b5b60006110ef84828501610c2c565b91505092915050565b600060408201905061110d6000830185610ed0565b61111a6020830184610ed0565b9392505050565b60006060820190506111366000830186610b45565b6111436020830185610b45565b6111506040830184610b45565b949350505050565b6000819050919050565b61116b81611158565b82525050565b600067ffffffffffffffff82169050919050565b61118e81611171565b82525050565b600061ffff82169050919050565b6111ab81611194565b82525050565b600063ffffffff82169050919050565b6111ca816111b1565b82525050565b600060a0820190506111e56000830188611162565b6111f26020830187611185565b6111ff60408301866111a2565b61120c60608301856111c1565b61121960808301846111c1565b9695505050505050565b60008151905061123281610c15565b92915050565b60006020828403121561124e5761124d610c0b565b5b600061125c84828501611223565b91505092915050565b7f4e487b7100000000000000000000000000000000000000000000000000000000600052601160045260246000fd5b600061129f82610b3b565b91506112aa83610b3b565b9250828210156112bd576112bc611265565b5b828203905092915050565b7f4e487b7100000000000000000000000000000000000000000000000000000000600052603260045260246000fd5b7f4e487b7100000000000000000000000000000000000000000000000000000000600052601260045260246000fd5b600061133182610b3b565b915061133c83610b3b565b92508261134c5761134b6112f7565b5b828206905092915050565b600081905092915050565b50565b6000611372600083611357565b915061137d82611362565b600082019050919050565b600061139382611365565b9150819050919050565b6000819050919050565b60006113c26113bd6113b884610e9e565b61139d565b610e9e565b9050919050565b60006113d4826113a7565b9050919050565b60006113e6826113c9565b9050919050565b6113f6816113db565b82525050565b600060208201905061141160008301846113ed565b9291505056fea2646970667358221220dd11dc0ba6598588019b1fb97d4bd3b2f2880ef253b9a7bd310069e7d21b26eb64736f6c63430008090033",
  "linkReferences": {},
  "deployedLinkReferences": {}
}